{
  "contractName": "DandelionVoting",
  "abi": [
    {
      "constant": true,
      "inputs": [],
      "name": "hasInitialized",
      "outputs": [
        {
          "name": "",
          "type": "bool"
        }
      ],
      "payable": false,
      "stateMutability": "view",
      "type": "function"
    },
    {
      "constant": true,
      "inputs": [
        {
          "name": "_script",
          "type": "bytes"
        }
      ],
      "name": "getEVMScriptExecutor",
      "outputs": [
        {
          "name": "",
          "type": "address"
        }
      ],
      "payable": false,
      "stateMutability": "view",
      "type": "function"
    },
    {
      "constant": true,
      "inputs": [],
      "name": "getRecoveryVault",
      "outputs": [
        {
          "name": "",
          "type": "address"
        }
      ],
      "payable": false,
      "stateMutability": "view",
      "type": "function"
    },
    {
      "constant": true,
      "inputs": [],
      "name": "MODIFY_QUORUM_ROLE",
      "outputs": [
        {
          "name": "",
          "type": "bytes32"
        }
      ],
      "payable": false,
      "stateMutability": "view",
      "type": "function"
    },
    {
      "constant": true,
      "inputs": [
        {
          "name": "",
          "type": "address"
        }
      ],
      "name": "latestYeaVoteId",
      "outputs": [
        {
          "name": "",
          "type": "uint256"
        }
      ],
      "payable": false,
      "stateMutability": "view",
      "type": "function"
    },
    {
      "constant": true,
      "inputs": [],
      "name": "MODIFY_EXECUTION_DELAY_ROLE",
      "outputs": [
        {
          "name": "",
          "type": "bytes32"
        }
      ],
      "payable": false,
      "stateMutability": "view",
      "type": "function"
    },
    {
      "constant": true,
      "inputs": [],
      "name": "MODIFY_SUPPORT_ROLE",
      "outputs": [
        {
          "name": "",
          "type": "bytes32"
        }
      ],
      "payable": false,
      "stateMutability": "view",
      "type": "function"
    },
    {
      "constant": true,
      "inputs": [],
      "name": "durationBlocks",
      "outputs": [
        {
          "name": "",
          "type": "uint64"
        }
      ],
      "payable": false,
      "stateMutability": "view",
      "type": "function"
    },
    {
      "constant": true,
      "inputs": [],
      "name": "MODIFY_BUFFER_BLOCKS_ROLE",
      "outputs": [
        {
          "name": "",
          "type": "bytes32"
        }
      ],
      "payable": false,
      "stateMutability": "view",
      "type": "function"
    },
    {
      "constant": true,
      "inputs": [
        {
          "name": "token",
          "type": "address"
        }
      ],
      "name": "allowRecoverability",
      "outputs": [
        {
          "name": "",
          "type": "bool"
        }
      ],
      "payable": false,
      "stateMutability": "view",
      "type": "function"
    },
    {
      "constant": true,
      "inputs": [],
      "name": "appId",
      "outputs": [
        {
          "name": "",
          "type": "bytes32"
        }
      ],
      "payable": false,
      "stateMutability": "view",
      "type": "function"
    },
    {
      "constant": true,
      "inputs": [],
      "name": "getInitializationBlock",
      "outputs": [
        {
          "name": "",
          "type": "uint256"
        }
      ],
      "payable": false,
      "stateMutability": "view",
      "type": "function"
    },
    {
      "constant": true,
      "inputs": [],
      "name": "bufferBlocks",
      "outputs": [
        {
          "name": "",
          "type": "uint64"
        }
      ],
      "payable": false,
      "stateMutability": "view",
      "type": "function"
    },
    {
      "constant": false,
      "inputs": [
        {
          "name": "_token",
          "type": "address"
        }
      ],
      "name": "transferToVault",
      "outputs": [],
      "payable": false,
      "stateMutability": "nonpayable",
      "type": "function"
    },
    {
      "constant": true,
      "inputs": [],
      "name": "getEVMScriptRegistry",
      "outputs": [
        {
          "name": "",
          "type": "address"
        }
      ],
      "payable": false,
      "stateMutability": "view",
      "type": "function"
    },
    {
      "constant": true,
      "inputs": [],
      "name": "CREATE_VOTES_ROLE",
      "outputs": [
        {
          "name": "",
          "type": "bytes32"
        }
      ],
      "payable": false,
      "stateMutability": "view",
      "type": "function"
    },
    {
      "constant": true,
      "inputs": [],
      "name": "executionDelayBlocks",
      "outputs": [
        {
          "name": "",
          "type": "uint64"
        }
      ],
      "payable": false,
      "stateMutability": "view",
      "type": "function"
    },
    {
      "constant": true,
      "inputs": [],
      "name": "kernel",
      "outputs": [
        {
          "name": "",
          "type": "address"
        }
      ],
      "payable": false,
      "stateMutability": "view",
      "type": "function"
    },
    {
      "constant": true,
      "inputs": [],
      "name": "minAcceptQuorumPct",
      "outputs": [
        {
          "name": "",
          "type": "uint64"
        }
      ],
      "payable": false,
      "stateMutability": "view",
      "type": "function"
    },
    {
      "constant": true,
      "inputs": [],
      "name": "isPetrified",
      "outputs": [
        {
          "name": "",
          "type": "bool"
        }
      ],
      "payable": false,
      "stateMutability": "view",
      "type": "function"
    },
    {
      "constant": true,
      "inputs": [],
      "name": "votesLength",
      "outputs": [
        {
          "name": "",
          "type": "uint256"
        }
      ],
      "payable": false,
      "stateMutability": "view",
      "type": "function"
    },
    {
      "constant": true,
      "inputs": [],
      "name": "supportRequiredPct",
      "outputs": [
        {
          "name": "",
          "type": "uint64"
        }
      ],
      "payable": false,
      "stateMutability": "view",
      "type": "function"
    },
    {
      "constant": true,
      "inputs": [],
      "name": "token",
      "outputs": [
        {
          "name": "",
          "type": "address"
        }
      ],
      "payable": false,
      "stateMutability": "view",
      "type": "function"
    },
    {
      "constant": true,
      "inputs": [],
      "name": "PCT_BASE",
      "outputs": [
        {
          "name": "",
          "type": "uint64"
        }
      ],
      "payable": false,
      "stateMutability": "view",
      "type": "function"
    },
    {
      "anonymous": false,
      "inputs": [
        {
          "indexed": true,
          "name": "voteId",
          "type": "uint256"
        },
        {
          "indexed": true,
          "name": "creator",
          "type": "address"
        },
        {
          "indexed": false,
          "name": "metadata",
          "type": "string"
        }
      ],
      "name": "StartVote",
      "type": "event"
    },
    {
      "anonymous": false,
      "inputs": [
        {
          "indexed": true,
          "name": "voteId",
          "type": "uint256"
        },
        {
          "indexed": true,
          "name": "voter",
          "type": "address"
        },
        {
          "indexed": false,
          "name": "supports",
          "type": "bool"
        },
        {
          "indexed": false,
          "name": "stake",
          "type": "uint256"
        }
      ],
      "name": "CastVote",
      "type": "event"
    },
    {
      "anonymous": false,
      "inputs": [
        {
          "indexed": true,
          "name": "voteId",
          "type": "uint256"
        }
      ],
      "name": "ExecuteVote",
      "type": "event"
    },
    {
      "anonymous": false,
      "inputs": [
        {
          "indexed": false,
          "name": "supportRequiredPct",
          "type": "uint64"
        }
      ],
      "name": "ChangeSupportRequired",
      "type": "event"
    },
    {
      "anonymous": false,
      "inputs": [
        {
          "indexed": false,
          "name": "minAcceptQuorumPct",
          "type": "uint64"
        }
      ],
      "name": "ChangeMinQuorum",
      "type": "event"
    },
    {
      "anonymous": false,
      "inputs": [
        {
          "indexed": false,
          "name": "bufferBlocks",
          "type": "uint64"
        }
      ],
      "name": "ChangeBufferBlocks",
      "type": "event"
    },
    {
      "anonymous": false,
      "inputs": [
        {
          "indexed": false,
          "name": "executionDelayBlocks",
          "type": "uint64"
        }
      ],
      "name": "ChangeExecutionDelayBlocks",
      "type": "event"
    },
    {
      "anonymous": false,
      "inputs": [
        {
          "indexed": true,
          "name": "executor",
          "type": "address"
        },
        {
          "indexed": false,
          "name": "script",
          "type": "bytes"
        },
        {
          "indexed": false,
          "name": "input",
          "type": "bytes"
        },
        {
          "indexed": false,
          "name": "returnData",
          "type": "bytes"
        }
      ],
      "name": "ScriptResult",
      "type": "event"
    },
    {
      "anonymous": false,
      "inputs": [
        {
          "indexed": true,
          "name": "vault",
          "type": "address"
        },
        {
          "indexed": true,
          "name": "token",
          "type": "address"
        },
        {
          "indexed": false,
          "name": "amount",
          "type": "uint256"
        }
      ],
      "name": "RecoverToVault",
      "type": "event"
    },
    {
      "constant": false,
      "inputs": [
        {
          "name": "_token",
          "type": "address"
        },
        {
          "name": "_supportRequiredPct",
          "type": "uint64"
        },
        {
          "name": "_minAcceptQuorumPct",
          "type": "uint64"
        },
        {
          "name": "_durationBlocks",
          "type": "uint64"
        },
        {
          "name": "_bufferBlocks",
          "type": "uint64"
        },
        {
          "name": "_executionDelayBlocks",
          "type": "uint64"
        }
      ],
      "name": "initialize",
      "outputs": [],
      "payable": false,
      "stateMutability": "nonpayable",
      "type": "function"
    },
    {
      "constant": false,
      "inputs": [
        {
          "name": "_supportRequiredPct",
          "type": "uint64"
        }
      ],
      "name": "changeSupportRequiredPct",
      "outputs": [],
      "payable": false,
      "stateMutability": "nonpayable",
      "type": "function"
    },
    {
      "constant": false,
      "inputs": [
        {
          "name": "_minAcceptQuorumPct",
          "type": "uint64"
        }
      ],
      "name": "changeMinAcceptQuorumPct",
      "outputs": [],
      "payable": false,
      "stateMutability": "nonpayable",
      "type": "function"
    },
    {
      "constant": false,
      "inputs": [
        {
          "name": "_bufferBlocks",
          "type": "uint64"
        }
      ],
      "name": "changeBufferBlocks",
      "outputs": [],
      "payable": false,
      "stateMutability": "nonpayable",
      "type": "function"
    },
    {
      "constant": false,
      "inputs": [
        {
          "name": "_executionDelayBlocks",
          "type": "uint64"
        }
      ],
      "name": "changeExecutionDelayBlocks",
      "outputs": [],
      "payable": false,
      "stateMutability": "nonpayable",
      "type": "function"
    },
    {
      "constant": false,
      "inputs": [
        {
          "name": "_executionScript",
          "type": "bytes"
        },
        {
          "name": "_metadata",
          "type": "string"
        },
        {
          "name": "_castVote",
          "type": "bool"
        }
      ],
      "name": "newVote",
      "outputs": [
        {
          "name": "voteId",
          "type": "uint256"
        }
      ],
      "payable": false,
      "stateMutability": "nonpayable",
      "type": "function"
    },
    {
      "constant": false,
      "inputs": [
        {
          "name": "_voteId",
          "type": "uint256"
        },
        {
          "name": "_supports",
          "type": "bool"
        }
      ],
      "name": "vote",
      "outputs": [],
      "payable": false,
      "stateMutability": "nonpayable",
      "type": "function"
    },
    {
      "constant": false,
      "inputs": [
        {
          "name": "_voteId",
          "type": "uint256"
        }
      ],
      "name": "executeVote",
      "outputs": [],
      "payable": false,
      "stateMutability": "nonpayable",
      "type": "function"
    },
    {
      "constant": true,
      "inputs": [],
      "name": "isForwarder",
      "outputs": [
        {
          "name": "",
          "type": "bool"
        }
      ],
      "payable": false,
      "stateMutability": "pure",
      "type": "function"
    },
    {
      "constant": false,
      "inputs": [
        {
          "name": "_evmScript",
          "type": "bytes"
        }
      ],
      "name": "forward",
      "outputs": [],
      "payable": false,
      "stateMutability": "nonpayable",
      "type": "function"
    },
    {
      "constant": true,
      "inputs": [
        {
          "name": "_sender",
          "type": "address"
        },
        {
          "name": "",
          "type": "bytes"
        }
      ],
      "name": "canForward",
      "outputs": [
        {
          "name": "",
          "type": "bool"
        }
      ],
      "payable": false,
      "stateMutability": "view",
      "type": "function"
    },
    {
      "constant": true,
      "inputs": [
        {
          "name": "_sender",
          "type": "address"
        },
        {
          "name": "_role",
          "type": "bytes32"
        },
        {
          "name": "_params",
          "type": "uint256[]"
        }
      ],
      "name": "canPerform",
      "outputs": [
        {
          "name": "",
          "type": "bool"
        }
      ],
      "payable": false,
      "stateMutability": "view",
      "type": "function"
    },
    {
      "constant": true,
      "inputs": [
        {
          "name": "",
          "type": "address"
        },
        {
          "name": "",
          "type": "address"
        },
        {
          "name": "",
          "type": "bytes32"
        },
        {
          "name": "_how",
          "type": "uint256[]"
        }
      ],
      "name": "canPerform",
      "outputs": [
        {
          "name": "",
          "type": "bool"
        }
      ],
      "payable": false,
      "stateMutability": "view",
      "type": "function"
    },
    {
      "constant": true,
      "inputs": [
        {
          "name": "_voteId",
          "type": "uint256"
        }
      ],
      "name": "canExecute",
      "outputs": [
        {
          "name": "",
          "type": "bool"
        }
      ],
      "payable": false,
      "stateMutability": "view",
      "type": "function"
    },
    {
      "constant": true,
      "inputs": [
        {
          "name": "_voteId",
          "type": "uint256"
        },
        {
          "name": "_voter",
          "type": "address"
        }
      ],
      "name": "canVote",
      "outputs": [
        {
          "name": "",
          "type": "bool"
        }
      ],
      "payable": false,
      "stateMutability": "view",
      "type": "function"
    },
    {
      "constant": true,
      "inputs": [
        {
          "name": "_voteId",
          "type": "uint256"
        }
      ],
      "name": "getVote",
      "outputs": [
        {
          "name": "open",
          "type": "bool"
        },
        {
          "name": "executed",
          "type": "bool"
        },
        {
          "name": "startBlock",
          "type": "uint64"
        },
        {
          "name": "executionBlock",
          "type": "uint64"
        },
        {
          "name": "snapshotBlock",
          "type": "uint64"
        },
        {
          "name": "supportRequired",
          "type": "uint64"
        },
        {
          "name": "minAcceptQuorum",
          "type": "uint64"
        },
        {
          "name": "votingPower",
          "type": "uint256"
        },
        {
          "name": "yea",
          "type": "uint256"
        },
        {
          "name": "nay",
          "type": "uint256"
        },
        {
          "name": "script",
          "type": "bytes"
        }
      ],
      "payable": false,
      "stateMutability": "view",
      "type": "function"
    },
    {
      "constant": true,
      "inputs": [
        {
          "name": "_voteId",
          "type": "uint256"
        },
        {
          "name": "_voter",
          "type": "address"
        }
      ],
      "name": "getVoterState",
      "outputs": [
        {
          "name": "",
          "type": "uint8"
        }
      ],
      "payable": false,
      "stateMutability": "view",
      "type": "function"
    }
  ],
  "bytecode": "0x6080604052620000176401000000006200001d810204565b6200023b565b6200003064010000000062000125810204565b60408051808201909152601881527f494e49545f414c52454144595f494e495449414c495a45440000000000000000602082015290156200010c576040517f08c379a00000000000000000000000000000000000000000000000000000000081526004018080602001828103825283818151815260200191508051906020019080838360005b83811015620000d0578181015183820152602001620000b6565b50505050905090810190601f168015620000fe5780820380516001836020036101000a031916815260200191505b509250505060405180910390fd5b506200012360001964010000000062000154810204565b565b60006200014f60008051602062004cd4833981519152640100000000620037ec6200023382021704565b905090565b6200016764010000000062000125810204565b60408051808201909152601881527f494e49545f414c52454144595f494e495449414c495a454400000000000000006020820152901562000206576040517f08c379a000000000000000000000000000000000000000000000000000000000815260040180806020018281038252838181518152602001915080519060200190808383600083811015620000d0578181015183820152602001620000b6565b506200023060008051602062004cd4833981519152826401000000006200478c6200023782021704565b50565b5490565b9055565b614a89806200024b6000396000f3006080604052600436106101f85763ffffffff7c01000000000000000000000000000000000000000000000000000000006000350416630803fac081146101fd57806324160baa146102265780632914b9bd146102695780632a151090146102eb57806332f0a3b5146103315780633c624c751461034657806344737f2f1461035b5780634b12311c146103895780635a55c1f0146103de5780635bd5cd8b146105205780635eb243321461053557806362de7e5a1461055957806365f6328f1461056e5780636b5c5ec7146105a05780637c1d0b87146105b55780637e7db6e1146105d757806380afdea8146106055780638b3dd7491461061a5780639780a7521461062f5780639d4941d814610644578063a1658fad14610672578063a23e3a97146106e6578063a479e50814610739578063a50951991461074e578063be2c64d414610770578063c0774df314610785578063c92422a3146107f9578063c9d27afe1461080e578063cc63604a1461082b578063cdb2867b14610843578063d4aae0c414610874578063d948d46814610889578063dc474b1a146108e2578063de4796ed146108f7578063de4f63471461090c578063f98a4eca14610921578063fac1347e14610939578063fad167ab1461095b578063fc0c546a14610970578063fc157cb414610985578063fd64eccb1461099a575b600080fd5b34801561020957600080fd5b506102126109af565b604080519115158252519081900360200190f35b34801561023257600080fd5b50610257602460048035828101929082013591813591820191013560443515156109d9565b60408051918252519081900360200190f35b34801561027557600080fd5b506040805160206004803580820135601f81018490048402850184019095528484526102c2943694929360249392840191908190840183828082843750949750610b769650505050505050565b6040805173ffffffffffffffffffffffffffffffffffffffff9092168252519081900360200190f35b3480156102f757600080fd5b5061021273ffffffffffffffffffffffffffffffffffffffff60048035821691602480359091169160443591606435908101910135610c82565b34801561033d57600080fd5b506102c261103e565b34801561035257600080fd5b506102576110dd565b34801561036757600080fd5b5061025773ffffffffffffffffffffffffffffffffffffffff60043516611112565b34801561039557600080fd5b506103ba60043573ffffffffffffffffffffffffffffffffffffffff60243516611124565b604051808260028111156103ca57fe5b60ff16815260200191505060405180910390f35b3480156103ea57600080fd5b506103f66004356112a9565b604051808c1515151581526020018b1515151581526020018a67ffffffffffffffff1667ffffffffffffffff1681526020018967ffffffffffffffff1667ffffffffffffffff1681526020018867ffffffffffffffff1667ffffffffffffffff1681526020018767ffffffffffffffff1667ffffffffffffffff1681526020018667ffffffffffffffff1667ffffffffffffffff16815260200185815260200184815260200183815260200180602001828103825283818151815260200191508051906020019080838360005b838110156104db5781810151838201526020016104c3565b50505050905090810190601f1680156105085780820380516001836020036101000a031916815260200191505b509c5050505050505050505050505060405180910390f35b34801561052c57600080fd5b50610257611667565b34801561054157600080fd5b5061055767ffffffffffffffff6004351661169c565b005b34801561056557600080fd5b506102576118f0565b34801561057a57600080fd5b50610583611925565b6040805167ffffffffffffffff9092168252519081900360200190f35b3480156105ac57600080fd5b50610257611941565b3480156105c157600080fd5b5061055767ffffffffffffffff60043516611976565b3480156105e357600080fd5b5061021273ffffffffffffffffffffffffffffffffffffffff60043516611cbb565b34801561061157600080fd5b50610257611cc1565b34801561062657600080fd5b50610257611cf1565b34801561063b57600080fd5b50610583611d1c565b34801561065057600080fd5b5061055773ffffffffffffffffffffffffffffffffffffffff60043516611d40565b34801561067e57600080fd5b50604080516020600460443581810135838102808601850190965280855261021295833573ffffffffffffffffffffffffffffffffffffffff169560248035963696956064959394920192918291850190849080828437509497506120629650505050505050565b3480156106f257600080fd5b5061055773ffffffffffffffffffffffffffffffffffffffff6004351667ffffffffffffffff60243581169060443581169060643581169060843581169060a435166121f2565b34801561074557600080fd5b506102c2612590565b34801561075a57600080fd5b5061055767ffffffffffffffff60043516612652565b34801561077c57600080fd5b506102576127c1565b34801561079157600080fd5b5060408051602060046024803582810135601f810185900485028601850190965285855261021295833573ffffffffffffffffffffffffffffffffffffffff169536956044949193909101919081908401838280828437509497506127f69650505050505050565b34801561080557600080fd5b50610583612846565b34801561081a57600080fd5b506105576004356024351515612872565b34801561083757600080fd5b50610212600435612a6c565b34801561084f57600080fd5b5061021260043573ffffffffffffffffffffffffffffffffffffffff60243516612a7d565b34801561088057600080fd5b506102c2612bd4565b34801561089557600080fd5b506040805160206004803580820135601f8101849004840285018401909552848452610557943694929360249392840191908190840183828082843750949750612bff9650505050505050565b3480156108ee57600080fd5b50610583612cc9565b34801561090357600080fd5b50610212612cd9565b34801561091857600080fd5b50610257612d0a565b34801561092d57600080fd5b50610557600435612d10565b34801561094557600080fd5b5061055767ffffffffffffffff60043516612f01565b34801561096757600080fd5b50610583613070565b34801561097c57600080fd5b506102c2613098565b34801561099157600080fd5b506105836130b4565b3480156109a657600080fd5b506102126130c0565b6000806109ba611cf1565b905080158015906109d25750806109cf6130c5565b10155b91505b5090565b604080517f4352454154455f564f5445535f524f4c450000000000000000000000000000008152815190819003601101812060008083526020830190935290610a289033908390855b50612062565b60408051808201909152600f81527f4150505f415554485f4641494c454400000000000000000000000000000000006020820152901515610b01576040517f08c379a00000000000000000000000000000000000000000000000000000000081526004018080602001828103825283818151815260200191508051906020019080838360005b83811015610ac6578181015183820152602001610aae565b50505050905090810190601f168015610af35780820380516001836020036101000a031916815260200191505b509250505060405180910390fd5b50610b6b87878080601f0160208091040260200160405190810160405280939291908181526020018383808284375050604080516020601f8d018190048102820181019092528b815294508b93508a92508291508401838280828437508a94506130c99350505050565b979650505050505050565b6000610b80612590565b73ffffffffffffffffffffffffffffffffffffffff166304bf2a7f836040518263ffffffff167c01000000000000000000000000000000000000000000000000000000000281526004018080602001828103825283818151815260200191508051906020019080838360005b83811015610c04578181015183820152602001610bec565b50505050905090810190601f168015610c315780820380516001836020036101000a031916815260200191505b5092505050602060405180830381600087803b158015610c5057600080fd5b505af1158015610c64573d6000803e3d6000fd5b505050506040513d6020811015610c7a57600080fd5b505192915050565b600080600080600080600080600060035460001415610ca4576001985061102d565b60408051606081018252602681527f44414e44454c494f4e5f564f54494e475f4f5241434c455f53454e4445525f4d60208201527f495353494e4700000000000000000000000000000000000000000000000000009181019190915260008b11610d6a576040517f08c379a000000000000000000000000000000000000000000000000000000000815260040180806020018281038252838181518152602001915080519060200190808383600083811015610ac6578181015183820152602001610aae565b50740100000000000000000000000000000000000000008b8b6000818110610d8e57fe5b9050602002013510606060405190810160405280602681526020017f44414e44454c494f4e5f564f54494e475f4f5241434c455f53454e4445525f5481526020017f4f4f5f4249470000000000000000000000000000000000000000000000000000815250901515610e5c576040517f08c379a000000000000000000000000000000000000000000000000000000000815260040180806020018281038252838181518152602001915080519060200190808383600083811015610ac6578181015183820152602001610aae565b508a8a6000818110610e6a57fe5b9050602002013560001415606060405190810160405280602381526020017f44414e44454c494f4e5f564f54494e475f4f5241434c455f53454e4445525f5a81526020017f45524f0000000000000000000000000000000000000000000000000000000000815250901515610f3b576040517f08c379a000000000000000000000000000000000000000000000000000000000815260040180806020018281038252838181518152602001915080519060200190808383600083811015610ac6578181015183820152602001610aae565b508a8a6000818110610f4957fe5b73ffffffffffffffffffffffffffffffffffffffff6020918202939093013592831660009081526004825260408082205480835260029093529020929a509850909650610f969050613431565b9450610fa186613443565b86546001549115955067ffffffffffffffff87811669010000000000000000009092048116918211159550600270010000000000000000000000000000000090930416919091049250610ff49083613590565b67ffffffffffffffff168567ffffffffffffffff161190508380156110165750825b806110225750855460ff165b8061102a5750805b98505b505050505050505095945050505050565b6000611048612bd4565b73ffffffffffffffffffffffffffffffffffffffff166332f0a3b56040518163ffffffff167c0100000000000000000000000000000000000000000000000000000000028152600401602060405180830381600087803b1580156110ab57600080fd5b505af11580156110bf573d6000803e3d6000fd5b505050506040513d60208110156110d557600080fd5b505190505b90565b604080517f4d4f444946595f51554f52554d5f524f4c4500000000000000000000000000008152905190819003601201902081565b60046020526000908152604090205481565b60408051808201909152601d81527f44414e44454c494f4e5f564f54494e475f564f54455f49445f5a45524f000000602082015260009083908115156111c6576040517f08c379a000000000000000000000000000000000000000000000000000000000815260040180806020018281038252838181518152602001915080519060200190808383600083811015610ac6578181015183820152602001610aae565b5060035460408051808201909152601881527f44414e44454c494f4e5f564f54494e475f4e4f5f564f54450000000000000000602082015290821115611268576040517f08c379a000000000000000000000000000000000000000000000000000000000815260040180806020018281038252838181518152602001915080519060200190808383600083811015610ac6578181015183820152602001610aae565b50600084815260026020908152604080832073ffffffffffffffffffffffffffffffffffffffff8716845260050190915290205460ff1691505b5092915050565b600080600080600080600080600080606060008c80600014156040805190810160405280601d81526020017f44414e44454c494f4e5f564f54494e475f564f54455f49445f5a45524f000000815250901515611361576040517f08c379a000000000000000000000000000000000000000000000000000000000815260040180806020018281038252838181518152602001915080519060200190808383600083811015610ac6578181015183820152602001610aae565b5060035460408051808201909152601881527f44414e44454c494f4e5f564f54494e475f4e4f5f564f54450000000000000000602082015290821115611403576040517f08c379a000000000000000000000000000000000000000000000000000000000815260040180806020018281038252838181518152602001915080519060200190808383600083811015610ac6578181015183820152602001610aae565b5060008e8152600260205260409020915061141d82613642565b9c508160000160009054906101000a900460ff169b508160000160019054906101000a900467ffffffffffffffff169a508160000160099054906101000a900467ffffffffffffffff1699508160000160119054906101000a900467ffffffffffffffff1698506000809054906101000a900473ffffffffffffffffffffffffffffffffffffffff1673ffffffffffffffffffffffffffffffffffffffff1663981b24d08360000160119054906101000a900467ffffffffffffffff166040518263ffffffff167c0100000000000000000000000000000000000000000000000000000000028152600401808267ffffffffffffffff168152602001915050602060405180830381600087803b15801561153657600080fd5b505af115801561154a573d6000803e3d6000fd5b505050506040513d602081101561156057600080fd5b810190808051906020019092919050505095508160010160009054906101000a900467ffffffffffffffff1697508160010160089054906101000a900467ffffffffffffffff1696508160020154945081600301549350816004018054600181600116156101000203166002900480601f01602080910402602001604051908101604052809291908181526020018280546001816001161561010002031660029004801561164f5780601f106116245761010080835404028352916020019161164f565b820191906000526020600020905b81548152906001019060200180831161163257829003601f168201915b50505050509250505091939597999b90929496989a50565b604080517f4d4f444946595f455845435554494f4e5f44454c41595f524f4c4500000000008152905190819003601b01902081565b604080517f4d4f444946595f51554f52554d5f524f4c450000000000000000000000000000815290519081900360120190206001546116e89067ffffffffffffffff8085169116613791565b6116f3338383612062565b60408051808201909152600f81527f4150505f415554485f4641494c454400000000000000000000000000000000006020820152901515611790576040517f08c379a000000000000000000000000000000000000000000000000000000000815260040180806020018281038252838181518152602001915080519060200190808383600083811015610ac6578181015183820152602001610aae565b5060005460408051606081018252602381527f44414e44454c494f4e5f564f54494e475f4348414e47455f51554f52554d5f5060208201527f4354530000000000000000000000000000000000000000000000000000000000918101919091529067ffffffffffffffff7401000000000000000000000000000000000000000090910481169085161115611880576040517f08c379a000000000000000000000000000000000000000000000000000000000815260040180806020018281038252838181518152602001915080519060200190808383600083811015610ac6578181015183820152602001610aae565b506001805467ffffffffffffffff85167fffffffffffffffffffffffffffffffffffffffffffffffff0000000000000000909116811790915560408051918252517f3172f2e9273c729c2a47cc8bf7e7f18506e3e3035126d562602bd2155bc78a509181900360200190a1505050565b604080517f4d4f444946595f535550504f52545f524f4c45000000000000000000000000008152905190819003601301902081565b60015468010000000000000000900467ffffffffffffffff1681565b604080517f4d4f444946595f4255464645525f424c4f434b535f524f4c45000000000000008152905190819003601901902081565b604080517f4d4f444946595f535550504f52545f524f4c4500000000000000000000000000815290519081900360130190206000546119da9067ffffffffffffffff8085169174010000000000000000000000000000000000000000900416613791565b6119e5338383612062565b60408051808201909152600f81527f4150505f415554485f4641494c454400000000000000000000000000000000006020820152901515611a82576040517f08c379a000000000000000000000000000000000000000000000000000000000815260040180806020018281038252838181518152602001915080519060200190808383600083811015610ac6578181015183820152602001610aae565b5060015460408051606081018252602481527f44414e44454c494f4e5f564f54494e475f4348414e47455f535550504f52545f60208201527f5043545300000000000000000000000000000000000000000000000000000000918101919091529067ffffffffffffffff80861691161115611b59576040517f08c379a000000000000000000000000000000000000000000000000000000000815260040180806020018281038252838181518152602001915080519060200190808383600083811015610ac6578181015183820152602001610aae565b5060408051606081018252602481527f44414e44454c494f4e5f564f54494e475f4348414e47455f535550505f544f4f60208201527f5f4249470000000000000000000000000000000000000000000000000000000091810191909152670de0b6b3a764000067ffffffffffffffff851610611c31576040517f08c379a000000000000000000000000000000000000000000000000000000000815260040180806020018281038252838181518152602001915080519060200190808383600083811015610ac6578181015183820152602001610aae565b506000805467ffffffffffffffff85167401000000000000000000000000000000000000000081027fffffffff0000000000000000ffffffffffffffffffffffffffffffffffffffff9092169190911790915560408051918252517f903b617f7f36eb047a29b89d1bf7885fdae31d250c3320fccf11d045c11b396e9181900360200190a1505050565b50600190565b6000611cec7fd625496217aa6a3453eecb9c3489dc5a53e6c67b444329ea2b2cbc9ff547639b6137ec565b905090565b6000611cec7febb05b386a8d34882b8711d156f463690983dc47815980fb82aeeff1aa43579e6137ec565b600154700100000000000000000000000000000000900467ffffffffffffffff1681565b6000806000611d4e84611cbb565b60408051808201909152601281527f5245434f5645525f444953414c4c4f57454400000000000000000000000000006020820152901515611deb576040517f08c379a000000000000000000000000000000000000000000000000000000000815260040180806020018281038252838181518152602001915080519060200190808383600083811015610ac6578181015183820152602001610aae565b50611df461103e565b9250611dff836137f4565b60408051808201909152601a81527f5245434f5645525f5641554c545f4e4f545f434f4e54524143540000000000006020820152901515611e9c576040517f08c379a000000000000000000000000000000000000000000000000000000000815260040180806020018281038252838181518152602001915080519060200190808383600083811015610ac6578181015183820152602001610aae565b5073ffffffffffffffffffffffffffffffffffffffff84161515611f07576040513031925073ffffffffffffffffffffffffffffffffffffffff84169083156108fc029084906000818181858888f19350505050158015611f01573d6000803e3d6000fd5b50611ff7565b5082611f2f73ffffffffffffffffffffffffffffffffffffffff82163063ffffffff61382e16565b9150611f5873ffffffffffffffffffffffffffffffffffffffff8216848463ffffffff61396716565b60408051808201909152601d81527f5245434f5645525f544f4b454e5f5452414e534645525f4641494c45440000006020820152901515611ff5576040517f08c379a000000000000000000000000000000000000000000000000000000000815260040180806020018281038252838181518152602001915080519060200190808383600083811015610ac6578181015183820152602001610aae565b505b8373ffffffffffffffffffffffffffffffffffffffff168373ffffffffffffffffffffffffffffffffffffffff167f596caf56044b55fb8c4ca640089bbc2b63cae3e978b851f5745cbb7c5b288e02846040518082815260200191505060405180910390a350505050565b60008061206d6109af565b151561207c57600091506121ea565b612084612bd4565b905073ffffffffffffffffffffffffffffffffffffffff811615156120ac57600091506121ea565b8073ffffffffffffffffffffffffffffffffffffffff1663fdef91068630876120d4886139ff565b6040517c010000000000000000000000000000000000000000000000000000000063ffffffff871602815273ffffffffffffffffffffffffffffffffffffffff808616600483019081529085166024830152604482018490526080606483019081528351608484015283519192909160a490910190602085019080838360005b8381101561216c578181015183820152602001612154565b50505050905090810190601f1680156121995780820380516001836020036101000a031916815260200191505b5095505050505050602060405180830381600087803b1580156121bb57600080fd5b505af11580156121cf573d6000803e3d6000fd5b505050506040513d60208110156121e557600080fd5b505191505b509392505050565b6121fa611cf1565b60408051808201909152601881527f494e49545f414c52454144595f494e495449414c495a4544000000000000000060208201529015612296576040517f08c379a000000000000000000000000000000000000000000000000000000000815260040180806020018281038252838181518152602001915080519060200190808383600083811015610ac6578181015183820152602001610aae565b5061229f613a09565b60408051808201909152601a81527f44414e44454c494f4e5f564f54494e475f494e49545f50435453000000000000602082015267ffffffffffffffff808716908616111561234a576040517f08c379a000000000000000000000000000000000000000000000000000000000815260040180806020018281038252838181518152602001915080519060200190808383600083811015610ac6578181015183820152602001610aae565b5060408051606081018252602581527f44414e44454c494f4e5f564f54494e475f494e49545f535550504f52545f544f60208201527f4f5f42494700000000000000000000000000000000000000000000000000000091810191909152670de0b6b3a764000067ffffffffffffffff871610612422576040517f08c379a000000000000000000000000000000000000000000000000000000000815260040180806020018281038252838181518152602001915080519060200190808383600083811015610ac6578181015183820152602001610aae565b50600080547fffffffffffffffffffffffff00000000000000000000000000000000000000001673ffffffffffffffffffffffffffffffffffffffff97909716969096177fffffffff0000000000000000ffffffffffffffffffffffffffffffffffffffff167401000000000000000000000000000000000000000067ffffffffffffffff9687160217909555600180547fffffffffffffffffffffffffffffffffffffffffffffffff000000000000000016938516939093177fffffffffffffffffffffffffffffffff0000000000000000ffffffffffffffff166801000000000000000092851692909202919091177fffffffffffffffff0000000000000000ffffffffffffffffffffffffffffffff16700100000000000000000000000000000000918416919091021777ffffffffffffffffffffffffffffffffffffffffffffffff1678010000000000000000000000000000000000000000000000009390921692909202179055565b60008061259b612bd4565b604080517fbe00bbd80000000000000000000000000000000000000000000000000000000081527fd6f028ca0e8edb4a8c9757ca4fdccab25fa1e0317da1188108f7d2dee14902fb60048201527fddbcfd564f642ab5627cf68b9b7d374fb4f8a36e941a75d89c87998cef03bd616024820152905173ffffffffffffffffffffffffffffffffffffffff929092169163be00bbd8916044808201926020929091908290030181600087803b158015610c5057600080fd5b604080517f4d4f444946595f4255464645525f424c4f434b535f524f4c4500000000000000815281519081900360190181206000808352602083019093529161269f913391849190610a22565b60408051808201909152600f81527f4150505f415554485f4641494c45440000000000000000000000000000000000602082015290151561273c576040517f08c379a000000000000000000000000000000000000000000000000000000000815260040180806020018281038252838181518152602001915080519060200190808383600083811015610ac6578181015183820152602001610aae565b506001805467ffffffffffffffff841670010000000000000000000000000000000081027fffffffffffffffff0000000000000000ffffffffffffffffffffffffffffffff9092169190911790915560408051918252517f758eab8b7cd18c019b0f5c0033b5452a277a89d6e8037d01d796216f5dbab4da9181900360200190a15050565b604080517f4352454154455f564f5445535f524f4c450000000000000000000000000000008152905190819003601101902081565b600061283f8360405180807f4352454154455f564f5445535f524f4c450000000000000000000000000000008152506011019050604051809103902061283a613ae8565b612062565b9392505050565b6001547801000000000000000000000000000000000000000000000000900467ffffffffffffffff1681565b60408051808201909152601d81527f44414e44454c494f4e5f564f54494e475f564f54455f49445f5a45524f00000060208201528290811515612911576040517f08c379a000000000000000000000000000000000000000000000000000000000815260040180806020018281038252838181518152602001915080519060200190808383600083811015610ac6578181015183820152602001610aae565b5060035460408051808201909152601881527f44414e44454c494f4e5f564f54494e475f4e4f5f564f544500000000000000006020820152908211156129b3576040517f08c379a000000000000000000000000000000000000000000000000000000000815260040180806020018281038252838181518152602001915080519060200190808383600083811015610ac6578181015183820152602001610aae565b506129be8333613afa565b60408051808201909152601d81527f44414e44454c494f4e5f564f54494e475f43414e5f4e4f545f564f54450000006020820152901515612a5b576040517f08c379a000000000000000000000000000000000000000000000000000000000815260040180806020018281038252838181518152602001915080519060200190808383600083811015610ac6578181015183820152602001610aae565b50612a67838333613b76565b505050565b6000612a7782613cf2565b92915050565b60408051808201909152601d81527f44414e44454c494f4e5f564f54494e475f564f54455f49445f5a45524f00000060208201526000908390811515612b1f576040517f08c379a000000000000000000000000000000000000000000000000000000000815260040180806020018281038252838181518152602001915080519060200190808383600083811015610ac6578181015183820152602001610aae565b5060035460408051808201909152601881527f44414e44454c494f4e5f564f54494e475f4e4f5f564f54450000000000000000602082015290821115612bc1576040517f08c379a000000000000000000000000000000000000000000000000000000000815260040180806020018281038252838181518152602001915080519060200190808383600083811015610ac6578181015183820152602001610aae565b50612bcc8484613afa565b949350505050565b6000611cec7f4172f0f7d2289153072b0a6ca36959e0cbe2efc3afe50fc81636caa96338137b6137ec565b612c0933826127f6565b6040805190810160405280602081526020017f44414e44454c494f4e5f564f54494e475f43414e5f4e4f545f464f5257415244815250901515612ca8576040517f08c379a000000000000000000000000000000000000000000000000000000000815260040180806020018281038252838181518152602001915080519060200190808383600083811015610ac6578181015183820152602001610aae565b50612cc581602060405190810160405280600081525060016130c9565b5050565b60015467ffffffffffffffff1681565b60007fffffffffffffffffffffffffffffffffffffffffffffffffffffffffffffffff612d04611cf1565b14905090565b60035481565b60006060612d1d83613cf2565b6040805190810160405280602081526020017f44414e44454c494f4e5f564f54494e475f43414e5f4e4f545f45584543555445815250901515612dbc576040517f08c379a000000000000000000000000000000000000000000000000000000000815260040180806020018281038252838181518152602001915080519060200190808383600083811015610ac6578181015183820152602001610aae565b50600083815260026020908152604080832080547fffffffffffffffffffffffffffffffffffffffffffffffffffffffffffffff0016600117815581518481529283019091529350905060048301805460408051602060026001851615610100027fffffffffffffffffffffffffffffffffffffffffffffffffffffffffffffffff0190941693909304601f8101849004840282018401909252818152939450612ed0939291830182828015612eb35780601f10612e8857610100808354040283529160200191612eb3565b820191906000526020600020905b815481529060010190602001808311612e9657829003601f168201915b50506040805160008152602081019091528693509150613ea09050565b5060405183907fbf8e2b108bb7c980e08903a8a46527699d5e84905a082d56dacb4150725c8cab90600090a2505050565b604080517f4d4f444946595f455845435554494f4e5f44454c41595f524f4c4500000000008152815190819003601b01812060008083526020830190935291612f4e913391849190610a22565b60408051808201909152600f81527f4150505f415554485f4641494c454400000000000000000000000000000000006020820152901515612feb576040517f08c379a000000000000000000000000000000000000000000000000000000000815260040180806020018281038252838181518152602001915080519060200190808383600083811015610ac6578181015183820152602001610aae565b506001805467ffffffffffffffff84167801000000000000000000000000000000000000000000000000810277ffffffffffffffffffffffffffffffffffffffffffffffff9092169190911790915560408051918252517f1a288a4aad7791b03be13892a66fe136e8463f57755e8b0ef910a2fba3fd319b9181900360200190a15050565b60005474010000000000000000000000000000000000000000900467ffffffffffffffff1681565b60005473ffffffffffffffffffffffffffffffffffffffff1681565b670de0b6b3a764000081565b600190565b4390565b600380546001810191829055600090815260026020526040812054610100900467ffffffffffffffff16908080808415613136576001546131319067ffffffffffffffff8781169170010000000000000000000000000000000090041663ffffffff61359016565b613139565b60005b9350613143613431565b67ffffffffffffffff168467ffffffffffffffff1610613163578361316b565b61316b613431565b6001549093506131d39067ffffffffffffffff780100000000000000000000000000000000000000000000000082048116916131bd91808816916801000000000000000090041663ffffffff61359016565b67ffffffffffffffff169063ffffffff61359016565b6000878152600260209081526040822080547fffffffffffffffffffffffffffffffffffffffffffffff0000000000000000ff1661010067ffffffffffffffff808a1691909102919091177fffffffffffffffffffffffffffffff0000000000000000ffffffffffffffffff16690100000000000000000086831602177fffffffffffffff0000000000000000ffffffffffffffffffffffffffffffffff16710100000000000000000000000000000000007fffffffffffffffffffffffffffffffffffffffffffffffffffffffffffffffff8a018316021782559254600180830180547401000000000000000000000000000000000000000090930486167fffffffffffffffffffffffffffffffffffffffffffffffff00000000000000009093169290921780835590547fffffffffffffffffffffffffffffffff0000000000000000ffffffffffffffff90911694166801000000000000000002939093179092558b519294509092506133509160048401918c01906149cf565b503373ffffffffffffffffffffffffffffffffffffffff16867f4d72fe0577a3a3f7da968d7b892779dde102519c25527b29cf7054f245c791b98a6040518080602001828103825283818151815260200191508051906020019080838360005b838110156133c85781810151838201526020016133b0565b50505050905090810190601f1680156133f55780820380516001836020036101000a031916815260200191505b509250505060405180910390a386801561341457506134148633613afa565b156134255761342586600133613b76565b50505050509392505050565b6000611cec61343e6130c5565b614576565b60008060008060006134668660030154876002015461462690919063ffffffff16565b600080548854604080517f981b24d00000000000000000000000000000000000000000000000000000000081527101000000000000000000000000000000000090920467ffffffffffffffff1660048301525193975073ffffffffffffffffffffffffffffffffffffffff9091169263981b24d092602480840193602093929083900390910190829087803b1580156134fe57600080fd5b505af1158015613512573d6000803e3d6000fd5b505050506040513d602081101561352857600080fd5b50516002870154600188015491945061354c91869067ffffffffffffffff166146cb565b6002870154600188015491935061357a91859068010000000000000000900467ffffffffffffffff166146cb565b90508180156135865750805b9695505050505050565b60408051808201909152601381527f4d41544836345f4144445f4f564552464c4f570000000000000000000000000060208201526000908383019067ffffffffffffffff80861690831610156121ea576040517f08c379a000000000000000000000000000000000000000000000000000000000815260040180806020018281038252838181518152602001915080519060200190808383600083811015610ac6578181015183820152602001610aae565b600080548254604080517f981b24d00000000000000000000000000000000000000000000000000000000081527101000000000000000000000000000000000090920467ffffffffffffffff166004830152518392839273ffffffffffffffffffffffffffffffffffffffff9091169163981b24d09160248082019260209290919082900301818787803b1580156136d957600080fd5b505af11580156136ed573d6000803e3d6000fd5b505050506040513d602081101561370357600080fd5b5051915061370f613431565b90506000821180156137355750835467ffffffffffffffff610100909104811690821610155b8015613787575060015484546137709161010090910467ffffffffffffffff908116916801000000000000000090041663ffffffff61359016565b67ffffffffffffffff168167ffffffffffffffff16105b92505b5050919050565b6040805160028082526060808301845292602083019080388339019050509050828160008151811015156137c157fe5b6020908102909101015280518290829060019081106137dc57fe5b6020908102909101015292915050565b5490565b5490565b60008073ffffffffffffffffffffffffffffffffffffffff8316151561381d5760009150613828565b823b90506000811191505b50919050565b6040805173ffffffffffffffffffffffffffffffffffffffff83166024808301919091528251808303909101815260449091019091526020810180517bffffffffffffffffffffffffffffffffffffffffffffffffffffffff167f70a082310000000000000000000000000000000000000000000000000000000017905260009081806138bb868461470d565b60408051808201909152601c81527f534146455f4552435f32305f42414c414e43455f5245564552544544000000006020820152919350915082151561395d576040517f08c379a000000000000000000000000000000000000000000000000000000000815260040180806020018281038252838181518152602001915080519060200190808383600083811015610ac6578181015183820152602001610aae565b5095945050505050565b6040805173ffffffffffffffffffffffffffffffffffffffff8416602482015260448082018490528251808303909101815260649091019091526020810180517bffffffffffffffffffffffffffffffffffffffffffffffffffffffff167fa9059cbb000000000000000000000000000000000000000000000000000000001790526000906139f6858261473e565b95945050505050565b8051602002815290565b613a11611cf1565b60408051808201909152601881527f494e49545f414c52454144595f494e495449414c495a4544000000000000000060208201529015613aad576040517f08c379a000000000000000000000000000000000000000000000000000000000815260040180806020018281038252838181518152602001915080519060200190808383600083811015610ac6578181015183820152602001610aae565b50613ae6613ab96130c5565b7febb05b386a8d34882b8711d156f463690983dc47815980fb82aeeff1aa43579e9063ffffffff61478c16565b565b60408051600081526020810190915290565b60008281526002602052604081208180613b148386614790565b9150600073ffffffffffffffffffffffffffffffffffffffff8616600090815260058501602052604090205460ff166002811115613b4e57fe5b149050613b5a83613642565b8015613b665750600082115b8015613586575095945050505050565b600083815260026020526040812090613b8f8284614790565b90508315613c0c576002820154613bac908263ffffffff61462616565b600283015573ffffffffffffffffffffffffffffffffffffffff8316600090815260046020526040902054851115613c075773ffffffffffffffffffffffffffffffffffffffff831660009081526004602052604090208590555b613c27565b6003820154613c21908263ffffffff61462616565b60038301555b83613c33576002613c36565b60015b73ffffffffffffffffffffffffffffffffffffffff84166000908152600584016020526040902080547fffffffffffffffffffffffffffffffffffffffffffffffffffffffffffffff00166001836002811115613c8f57fe5b021790555060408051851515815260208101839052815173ffffffffffffffffffffffffffffffffffffffff86169288927fb34ee265e3d4f5ec4e8b52d59b2a9be8fceca2f274ebc080d8fba797fea9391f929081900390910190a35050505050565b60408051808201909152601d81527f44414e44454c494f4e5f564f54494e475f564f54455f49445f5a45524f000000602082015260009081908390811515613d96576040517f08c379a000000000000000000000000000000000000000000000000000000000815260040180806020018281038252838181518152602001915080519060200190808383600083811015610ac6578181015183820152602001610aae565b5060035460408051808201909152601881527f44414e44454c494f4e5f564f54494e475f4e4f5f564f54450000000000000000602082015290821115613e38576040517f08c379a000000000000000000000000000000000000000000000000000000000815260040180806020018281038252838181518152602001915080519060200190808383600083811015610ac6578181015183820152602001610aae565b506000848152600260205260409020805490925060ff1615613e5d576000925061378a565b81546901000000000000000000900467ffffffffffffffff16613e7e613431565b67ffffffffffffffff161015613e97576000925061378a565b61378782613443565b6060600080606080613eb06109af565b60408051808201909152601481527f494e49545f4e4f545f494e495449414c495a45440000000000000000000000006020820152901515613f4d576040517f08c379a000000000000000000000000000000000000000000000000000000000815260040180806020018281038252838181518152602001915080519060200190808383600083811015610ac6578181015183820152602001610aae565b50600080613f59612bd4565b9150613f63611cc1565b9050613f6e8a610b76565b60408051808201909152601b81527f45564d52554e5f4558454355544f525f554e415641494c41424c450000000000602082015290965073ffffffffffffffffffffffffffffffffffffffff87161515614024576040517f08c379a000000000000000000000000000000000000000000000000000000000815260040180806020018281038252838181518152602001915080519060200190808383600083811015610ac6578181015183820152602001610aae565b506040516060602482019081528b5160848301528b517f279cea3500000000000000000000000000000000000000000000000000000000975087928d928d928d9282916044820191606481019160a490910190602089019080838360005b8381101561409a578181015183820152602001614082565b50505050905090810190601f1680156140c75780820380516001836020036101000a031916815260200191505b50848103835286518152865160209182019188019080838360005b838110156140fa5781810151838201526020016140e2565b50505050905090810190601f1680156141275780820380516001836020036101000a031916815260200191505b508481038252855181528551602091820191808801910280838360005b8381101561415c578181015183820152602001614144565b505050509050019650505050505050604051602081830303815290604052907bffffffffffffffffffffffffffffffffffffffffffffffffffffffff19166020820180517bffffffffffffffffffffffffffffffffffffffffffffffffffffffff83818316178352505050509350600080855160208701895af4604051935080801561426157603f3d1180156141ff5760203d03806020883e860160405261425b565b7f08c379a000000000000000000000000000000000000000000000000000000000865260206004870152601e60248701527f45564d52554e5f4558454355544f525f494e56414c49445f52455455524e00006044870152606486fd5b5061426a565b3d6000863e3d85fd5b50508573ffffffffffffffffffffffffffffffffffffffff167f5229a5dba83a54ae8cb5b51bdd6de9474cacbe9dd332f5185f3a4f4f2e3f4ad98b8b8660405180806020018060200180602001848103845287818151815260200191508051906020019080838360005b838110156142ec5781810151838201526020016142d4565b50505050905090810190601f1680156143195780820380516001836020036101000a031916815260200191505b50848103835286518152865160209182019188019080838360005b8381101561434c578181015183820152602001614334565b50505050905090810190601f1680156143795780820380516001836020036101000a031916815260200191505b50848103825285518152855160209182019187019080838360005b838110156143ac578181015183820152602001614394565b50505050905090810190601f1680156143d95780820380516001836020036101000a031916815260200191505b50965050505050505060405180910390a28296508173ffffffffffffffffffffffffffffffffffffffff1661440c612bd4565b73ffffffffffffffffffffffffffffffffffffffff16146040805190810160405280601f81526020017f45564d52554e5f50524f5445435445445f53544154455f4d4f444946494544008152509015156144c2576040517f08c379a000000000000000000000000000000000000000000000000000000000815260040180806020018281038252838181518152602001915080519060200190808383600083811015610ac6578181015183820152602001610aae565b50806144cc611cc1565b60408051808201909152601f81527f45564d52554e5f50524f5445435445445f53544154455f4d4f4449464945440060208201529114614568576040517f08c379a000000000000000000000000000000000000000000000000000000000815260040180806020018281038252838181518152602001915080519060200190808383600083811015610ac6578181015183820152602001610aae565b505050505050509392505050565b60408051808201909152601581527f55494e5436345f4e554d4245525f544f4f5f4249470000000000000000000000602082015260009067ffffffffffffffff83111561461f576040517f08c379a000000000000000000000000000000000000000000000000000000000815260040180806020018281038252838181518152602001915080519060200190808383600083811015610ac6578181015183820152602001610aae565b5090919050565b60408051808201909152601181527f4d4154485f4144445f4f564552464c4f57000000000000000000000000000000602082015260009083830190848210156121ea576040517f08c379a000000000000000000000000000000000000000000000000000000000815260040180806020018281038252838181518152602001915080519060200190808383600083811015610ac6578181015183820152602001610aae565b6000808315156146de57600091506121ea565b836146f786670de0b6b3a764000063ffffffff61490d16565b81151561470057fe5b0492909211949350505050565b6000806000806040516020818751602089018a5afa9250600083111561473257805191505b50909590945092505050565b6000806040516020818551602087016000895af16000811115614782573d801561476f576020811461477857614780565b60019350614780565b600183511493505b505b5090949350505050565b9055565b600080548354604080517f4ee2cd7e00000000000000000000000000000000000000000000000000000000815273ffffffffffffffffffffffffffffffffffffffff86811660048301527101000000000000000000000000000000000090930467ffffffffffffffff1660248201529051849384931691634ee2cd7e91604480830192602092919082900301818787803b15801561482d57600080fd5b505af1158015614841573d6000803e3d6000fd5b505050506040513d602081101561485757600080fd5b505160008054604080517f70a0823100000000000000000000000000000000000000000000000000000000815273ffffffffffffffffffffffffffffffffffffffff898116600483015291519496509116926370a0823192602480840193602093929083900390910190829087803b1580156148d257600080fd5b505af11580156148e6573d6000803e3d6000fd5b505050506040513d60208110156148fc57600080fd5b505190508082106121ea57806139f6565b60008083151561492057600091506112a2565b5082820282848281151561493057fe5b60408051808201909152601181527f4d4154485f4d554c5f4f564552464c4f57000000000000000000000000000000602082015292919004146121ea576040517f08c379a000000000000000000000000000000000000000000000000000000000815260040180806020018281038252838181518152602001915080519060200190808383600083811015610ac6578181015183820152602001610aae565b828054600181600116156101000203166002900490600052602060002090601f016020900481019282601f10614a1057805160ff1916838001178555614a3d565b82800160010185558215614a3d579182015b82811115614a3d578251825591602001919060010190614a22565b506109d5926110da9250905b808211156109d55760008155600101614a495600a165627a7a72305820c756c58e6c4c47053cadd505c87ebe69d7eb04e4db8cd955b46da796f28265900029ebb05b386a8d34882b8711d156f463690983dc47815980fb82aeeff1aa43579e",
  "source": "/*\n * SPDX-License-Identitifer:    GPL-3.0-or-later\n */\n\npragma solidity 0.4.24;\n\nimport \"@aragon/os/contracts/apps/AragonApp.sol\";\nimport \"@aragon/os/contracts/common/IForwarder.sol\";\nimport \"@aragon/os/contracts/acl/IACLOracle.sol\";\n\nimport \"@aragon/os/contracts/lib/math/SafeMath.sol\";\nimport \"@aragon/os/contracts/lib/math/SafeMath64.sol\";\n\nimport \"@aragon/apps-shared-minime/contracts/MiniMeToken.sol\";\n\n\ncontract DandelionVoting is IForwarder, IACLOracle, AragonApp {\n    using SafeMath for uint256;\n    using SafeMath64 for uint64;\n\n    bytes32 public constant CREATE_VOTES_ROLE = keccak256(\"CREATE_VOTES_ROLE\");\n    bytes32 public constant MODIFY_SUPPORT_ROLE = keccak256(\"MODIFY_SUPPORT_ROLE\");\n    bytes32 public constant MODIFY_QUORUM_ROLE = keccak256(\"MODIFY_QUORUM_ROLE\");\n    bytes32 public constant MODIFY_BUFFER_BLOCKS_ROLE = keccak256(\"MODIFY_BUFFER_BLOCKS_ROLE\");\n    bytes32 public constant MODIFY_EXECUTION_DELAY_ROLE = keccak256(\"MODIFY_EXECUTION_DELAY_ROLE\");\n\n    uint64 public constant PCT_BASE = 10 ** 18; // 0% = 0; 1% = 10^16; 100% = 10^18\n    uint8 private constant EXECUTION_PERIOD_FALLBACK_DIVISOR = 2;\n\n    string private constant ERROR_VOTE_ID_ZERO = \"DANDELION_VOTING_VOTE_ID_ZERO\";\n    string private constant ERROR_NO_VOTE = \"DANDELION_VOTING_NO_VOTE\";\n    string private constant ERROR_INIT_PCTS = \"DANDELION_VOTING_INIT_PCTS\";\n    string private constant ERROR_CHANGE_SUPPORT_PCTS = \"DANDELION_VOTING_CHANGE_SUPPORT_PCTS\";\n    string private constant ERROR_CHANGE_QUORUM_PCTS = \"DANDELION_VOTING_CHANGE_QUORUM_PCTS\";\n    string private constant ERROR_INIT_SUPPORT_TOO_BIG = \"DANDELION_VOTING_INIT_SUPPORT_TOO_BIG\";\n    string private constant ERROR_CHANGE_SUPPORT_TOO_BIG = \"DANDELION_VOTING_CHANGE_SUPP_TOO_BIG\";\n    string private constant ERROR_CAN_NOT_VOTE = \"DANDELION_VOTING_CAN_NOT_VOTE\";\n    string private constant ERROR_CAN_NOT_EXECUTE = \"DANDELION_VOTING_CAN_NOT_EXECUTE\";\n    string private constant ERROR_CAN_NOT_FORWARD = \"DANDELION_VOTING_CAN_NOT_FORWARD\";\n    string private constant ERROR_ORACLE_SENDER_MISSING = \"DANDELION_VOTING_ORACLE_SENDER_MISSING\";\n    string private constant ERROR_ORACLE_SENDER_TOO_BIG = \"DANDELION_VOTING_ORACLE_SENDER_TOO_BIG\";\n    string private constant ERROR_ORACLE_SENDER_ZERO = \"DANDELION_VOTING_ORACLE_SENDER_ZERO\";\n\n    enum VoterState { Absent, Yea, Nay }\n\n    struct Vote {\n        bool executed;\n        uint64 startBlock;\n        uint64 executionBlock;\n        uint64 snapshotBlock;\n        uint64 supportRequiredPct;\n        uint64 minAcceptQuorumPct;\n        uint256 yea;\n        uint256 nay;\n        bytes executionScript;\n        mapping (address => VoterState) voters;\n    }\n\n    MiniMeToken public token;\n    uint64 public supportRequiredPct;\n    uint64 public minAcceptQuorumPct;\n    uint64 public durationBlocks;\n    uint64 public bufferBlocks;\n    uint64 public executionDelayBlocks;\n\n    // We are mimicing an array, we use a mapping instead to make app upgrade more graceful\n    mapping (uint256 => Vote) internal votes;\n    uint256 public votesLength;\n    mapping (address => uint256) public latestYeaVoteId;\n\n    event StartVote(uint256 indexed voteId, address indexed creator, string metadata);\n    event CastVote(uint256 indexed voteId, address indexed voter, bool supports, uint256 stake);\n    event ExecuteVote(uint256 indexed voteId);\n    event ChangeSupportRequired(uint64 supportRequiredPct);\n    event ChangeMinQuorum(uint64 minAcceptQuorumPct);\n    event ChangeBufferBlocks(uint64 bufferBlocks);\n    event ChangeExecutionDelayBlocks(uint64 executionDelayBlocks);\n\n    modifier voteExists(uint256 _voteId) {\n        require(_voteId != 0, ERROR_VOTE_ID_ZERO);\n        require(_voteId <= votesLength, ERROR_NO_VOTE);\n        _;\n    }\n\n    /**\n    * @notice Initialize Voting app with `_token.symbol(): string` for governance, minimum support of `@formatPct(_supportRequiredPct)`%, minimum acceptance quorum of `@formatPct(_minAcceptQuorumPct)`%, a voting duration of `_voteDurationBlocks` blocks, and a vote buffer of `_voteBufferBlocks` blocks\n    * @param _token MiniMeToken Address that will be used as governance token\n    * @param _supportRequiredPct Percentage of yeas in casted votes for a vote to succeed (expressed as a percentage of 10^18; eg. 10^16 = 1%, 10^18 = 100%)\n    * @param _minAcceptQuorumPct Percentage of yeas in total possible votes for a vote to succeed (expressed as a percentage of 10^18; eg. 10^16 = 1%, 10^18 = 100%)\n    * @param _durationBlocks Blocks that a vote will be open for token holders to vote\n    * @param _bufferBlocks Minimum number of blocks between the start block of each vote\n    * @param _executionDelayBlocks Minimum number of blocks between the end of a vote and when it can be executed\n    */\n    function initialize(\n        MiniMeToken _token,\n        uint64 _supportRequiredPct,\n        uint64 _minAcceptQuorumPct,\n        uint64 _durationBlocks,\n        uint64 _bufferBlocks,\n        uint64 _executionDelayBlocks\n    )\n        external\n        onlyInit\n    {\n        initialized();\n\n        require(_minAcceptQuorumPct <= _supportRequiredPct, ERROR_INIT_PCTS);\n        require(_supportRequiredPct < PCT_BASE, ERROR_INIT_SUPPORT_TOO_BIG);\n\n        token = _token;\n        supportRequiredPct = _supportRequiredPct;\n        minAcceptQuorumPct = _minAcceptQuorumPct;\n        durationBlocks = _durationBlocks;\n        bufferBlocks = _bufferBlocks;\n        executionDelayBlocks = _executionDelayBlocks;\n    }\n\n    /**\n    * @notice Change required support to `@formatPct(_supportRequiredPct)`%\n    * @param _supportRequiredPct New required support\n    */\n    function changeSupportRequiredPct(uint64 _supportRequiredPct)\n        external\n        authP(MODIFY_SUPPORT_ROLE, arr(uint256(_supportRequiredPct), uint256(supportRequiredPct)))\n    {\n        require(minAcceptQuorumPct <= _supportRequiredPct, ERROR_CHANGE_SUPPORT_PCTS);\n        require(_supportRequiredPct < PCT_BASE, ERROR_CHANGE_SUPPORT_TOO_BIG);\n        supportRequiredPct = _supportRequiredPct;\n\n        emit ChangeSupportRequired(_supportRequiredPct);\n    }\n\n    /**\n    * @notice Change minimum acceptance quorum to `@formatPct(_minAcceptQuorumPct)`%\n    * @param _minAcceptQuorumPct New acceptance quorum\n    */\n    function changeMinAcceptQuorumPct(uint64 _minAcceptQuorumPct)\n        external\n        authP(MODIFY_QUORUM_ROLE, arr(uint256(_minAcceptQuorumPct), uint256(minAcceptQuorumPct)))\n    {\n        require(_minAcceptQuorumPct <= supportRequiredPct, ERROR_CHANGE_QUORUM_PCTS);\n        minAcceptQuorumPct = _minAcceptQuorumPct;\n\n        emit ChangeMinQuorum(_minAcceptQuorumPct);\n    }\n\n    /**\n    * @notice Change vote buffer to `_voteBufferBlocks` blocks\n    * @param _bufferBlocks New vote buffer defined in blocks\n    */\n    function changeBufferBlocks(uint64 _bufferBlocks) external auth(MODIFY_BUFFER_BLOCKS_ROLE) {\n        bufferBlocks = _bufferBlocks;\n        emit ChangeBufferBlocks(_bufferBlocks);\n    }\n\n    /**\n    * @notice Change execution delay to `_executionDelayBlocks` blocks\n    * @param _executionDelayBlocks New vote execution delay defined in blocks\n    */\n    function changeExecutionDelayBlocks(uint64 _executionDelayBlocks) external auth(MODIFY_EXECUTION_DELAY_ROLE) {\n        executionDelayBlocks = _executionDelayBlocks;\n        emit ChangeExecutionDelayBlocks(_executionDelayBlocks);\n    }\n\n    /**\n    * @notice Create a new vote about \"`_metadata`\"\n    * @param _executionScript EVM script to be executed on approval\n    * @param _metadata Vote metadata\n    * @param _castVote Whether to also cast newly created vote\n    * @return voteId id for newly created vote\n    */\n    function newVote(bytes _executionScript, string _metadata, bool _castVote)\n        external\n        auth(CREATE_VOTES_ROLE)\n        returns (uint256 voteId)\n    {\n        return _newVote(_executionScript, _metadata, _castVote);\n    }\n\n    /**\n    * @notice Vote `_supports ? 'yes' : 'no'` in vote #`_voteId`\n    * @dev Initialization check is implicitly provided by `voteExists()` as new votes can only be\n    *      created via `newVote(),` which requires initialization\n    * @param _voteId Id for vote\n    * @param _supports Whether voter supports the vote\n    */\n    function vote(uint256 _voteId, bool _supports) external voteExists(_voteId) {\n        require(_canVote(_voteId, msg.sender), ERROR_CAN_NOT_VOTE);\n        _vote(_voteId, _supports, msg.sender);\n    }\n\n    /**\n    * @notice Execute vote #`_voteId`\n    * @dev Initialization check is implicitly provided by `voteExists()` as new votes can only be\n    *      created via `newVote(),` which requires initialization\n    * @param _voteId Id for vote\n    */\n    function executeVote(uint256 _voteId) external {\n        require(_canExecute(_voteId), ERROR_CAN_NOT_EXECUTE);\n\n        Vote storage vote_ = votes[_voteId];\n\n        vote_.executed = true;\n\n        bytes memory input = new bytes(0); // TODO: Consider input for voting scripts\n        runScript(vote_.executionScript, input, new address[](0));\n\n        emit ExecuteVote(_voteId);\n    }\n\n    // Forwarding fns\n\n    /**\n    * @notice Returns whether the Voting app is a forwarder or not\n    * @dev IForwarder interface conformance\n    * @return Always true\n    */\n    function isForwarder() external pure returns (bool) {\n        return true;\n    }\n\n    /**\n    * @notice Creates a vote to execute the desired action, and casts a support vote if possible\n    * @dev IForwarder interface conformance\n    * @param _evmScript Start vote with script\n    */\n    function forward(bytes _evmScript) public {\n        require(canForward(msg.sender, _evmScript), ERROR_CAN_NOT_FORWARD);\n        _newVote(_evmScript, \"\", true);\n    }\n\n    /**\n    * @notice Returns whether `_sender` can forward actions or not\n    * @dev IForwarder interface conformance\n    * @param _sender Address of the account intending to forward an action\n    * @return True if the given address can create votes, false otherwise\n    */\n    function canForward(address _sender, bytes) public view returns (bool) {\n        // Note that `canPerform()` implicitly does an initialization check itself\n        return canPerform(_sender, CREATE_VOTES_ROLE, arr());\n    }\n\n    // ACL Oracle fns\n\n    /**\n    * @notice Returns whether the sender has voted on the most recent open vote or closed unexecuted vote.\n    * @dev IACLOracle interface conformance. The ACLOracle permissioned function should specify the sender\n    *      with 'authP(SOME_ACL_ROLE, arr(sender))', where sender is typically set to 'msg.sender'.\n    * @param _how Array passed by Kernel when using 'authP()'. First item should be the address to check can perform.\n    * return False if the sender has voted on the most recent open vote or closed unexecuted vote, true if they haven't.\n    */\n    function canPerform(address, address, bytes32, uint256[] _how) external view returns (bool) {\n        if (votesLength == 0) {\n            return true;\n        }\n\n        require(_how.length > 0, ERROR_ORACLE_SENDER_MISSING);\n        require(_how[0] < 2**160, ERROR_ORACLE_SENDER_TOO_BIG);\n        require(_how[0] != 0, ERROR_ORACLE_SENDER_ZERO);\n\n        address sender = address(_how[0]);\n        uint256 senderLatestYeaVoteId = latestYeaVoteId[sender];\n        Vote storage senderLatestYeaVote_ = votes[senderLatestYeaVoteId];\n        uint64 blockNumber = getBlockNumber64();\n\n        bool senderLatestYeaVoteFailed = !_votePassed(senderLatestYeaVote_);\n        bool senderLatestYeaVoteExecutionBlockPassed = blockNumber >= senderLatestYeaVote_.executionBlock;\n\n        uint64 fallbackPeriodLength = bufferBlocks / EXECUTION_PERIOD_FALLBACK_DIVISOR;\n        bool senderLatestYeaVoteFallbackPeriodPassed = blockNumber > senderLatestYeaVote_.executionBlock.add(fallbackPeriodLength);\n\n        return senderLatestYeaVoteFailed && senderLatestYeaVoteExecutionBlockPassed || senderLatestYeaVote_.executed || senderLatestYeaVoteFallbackPeriodPassed;\n    }\n\n    // Getter fns\n\n    /**\n    * @notice Tells whether a vote #`_voteId` can be executed or not\n    * @dev Initialization check is implicitly provided by `voteExists()` as new votes can only be\n    *      created via `newVote(),` which requires initialization\n    * @return True if the given vote can be executed, false otherwise\n    */\n    function canExecute(uint256 _voteId) public view returns (bool) {\n        return _canExecute(_voteId);\n    }\n\n    /**\n    * @notice Tells whether `_sender` can participate in the vote #`_voteId` or not\n    * @dev Initialization check is implicitly provided by `voteExists()` as new votes can only be\n    *      created via `newVote(),` which requires initialization\n    * @return True if the given voter can participate a certain vote, false otherwise\n    */\n    function canVote(uint256 _voteId, address _voter) public view voteExists(_voteId) returns (bool) {\n        return _canVote(_voteId, _voter);\n    }\n\n    /**\n    * @dev Return all information for a vote by its ID\n    * @param _voteId Vote identifier\n    * @return Vote open status\n    * @return Vote executed status\n    * @return Vote start block\n    * @return Vote snapshot block\n    * @return Vote support required\n    * @return Vote minimum acceptance quorum\n    * @return Vote yeas amount\n    * @return Vote nays amount\n    * @return Vote power\n    * @return Vote script\n    */\n    function getVote(uint256 _voteId)\n        public\n        view\n        voteExists(_voteId)\n        returns (\n            bool open,\n            bool executed,\n            uint64 startBlock,\n            uint64 executionBlock,\n            uint64 snapshotBlock,\n            uint64 supportRequired,\n            uint64 minAcceptQuorum,\n            uint256 votingPower,\n            uint256 yea,\n            uint256 nay,\n            bytes script\n        )\n    {\n        Vote storage vote_ = votes[_voteId];\n\n        open = _isVoteOpen(vote_);\n        executed = vote_.executed;\n        startBlock = vote_.startBlock;\n        executionBlock = vote_.executionBlock;\n        snapshotBlock = vote_.snapshotBlock;\n        votingPower = token.totalSupplyAt(vote_.snapshotBlock);\n        supportRequired = vote_.supportRequiredPct;\n        minAcceptQuorum = vote_.minAcceptQuorumPct;\n        yea = vote_.yea;\n        nay = vote_.nay;\n        script = vote_.executionScript;\n    }\n\n    /**\n    * @dev Return the state of a voter for a given vote by its ID\n    * @param _voteId Vote identifier\n    * @return VoterState of the requested voter for a certain vote\n    */\n    function getVoterState(uint256 _voteId, address _voter) public view voteExists(_voteId) returns (VoterState) {\n        return votes[_voteId].voters[_voter];\n    }\n\n    // Internal fns\n\n    /**\n    * @dev Internal function to create a new vote\n    * @return voteId id for newly created vote\n    */\n    function _newVote(bytes _executionScript, string _metadata, bool _castVote) internal returns (uint256 voteId) {\n        voteId = ++votesLength; // Increment votesLength before assigning to votedId. The first voteId is 1.\n\n        uint64 previousVoteStartBlock = votes[voteId - 1].startBlock;\n        uint64 earliestStartBlock = previousVoteStartBlock == 0 ? 0 : previousVoteStartBlock.add(bufferBlocks);\n        uint64 startBlock = earliestStartBlock < getBlockNumber64() ? getBlockNumber64() : earliestStartBlock;\n\n        uint64 executionBlock = startBlock.add(durationBlocks).add(executionDelayBlocks);\n\n        Vote storage vote_ = votes[voteId];\n        vote_.startBlock = startBlock;\n        vote_.executionBlock = executionBlock;\n        vote_.snapshotBlock = startBlock - 1; // avoid double voting in this very block\n        vote_.supportRequiredPct = supportRequiredPct;\n        vote_.minAcceptQuorumPct = minAcceptQuorumPct;\n        vote_.executionScript = _executionScript;\n\n        emit StartVote(voteId, msg.sender, _metadata);\n\n        if (_castVote && _canVote(voteId, msg.sender)) {\n            _vote(voteId, true, msg.sender);\n        }\n    }\n\n    /**\n    * @dev Internal function to cast a vote. It assumes the queried vote exists.\n    */\n    function _vote(uint256 _voteId, bool _supports, address _voter) internal {\n        Vote storage vote_ = votes[_voteId];\n\n        uint256 voterStake = _voterStake(vote_, _voter);\n\n        if (_supports) {\n            vote_.yea = vote_.yea.add(voterStake);\n            if (latestYeaVoteId[_voter] < _voteId) {\n                latestYeaVoteId[_voter] = _voteId;\n            }\n        } else {\n            vote_.nay = vote_.nay.add(voterStake);\n        }\n\n        vote_.voters[_voter] = _supports ? VoterState.Yea : VoterState.Nay;\n\n        emit CastVote(_voteId, _voter, _supports, voterStake);\n    }\n\n    /**\n    * @dev Internal function to check if a vote can be executed. It assumes the queried vote exists.\n    * @return True if the given vote can be executed, false otherwise\n    */\n    function _canExecute(uint256 _voteId) internal view voteExists(_voteId) returns (bool) {\n        Vote storage vote_ = votes[_voteId];\n\n        if (vote_.executed) {\n            return false;\n        }\n\n        // This will always be later than the end of the previous vote\n        if (getBlockNumber64() < vote_.executionBlock) {\n            return false;\n        }\n\n        return _votePassed(vote_);\n    }\n\n    /**\n    * @dev Internal function to check if a vote has passed. It assumes the vote period has passed.\n    * @return True if the given vote has passed, false otherwise.\n    */\n    function _votePassed(Vote storage vote_) internal view returns (bool) {\n        uint256 totalVotes = vote_.yea.add(vote_.nay);\n        uint256 votingPowerAtSnapshot = token.totalSupplyAt(vote_.snapshotBlock);\n\n        bool hasSupportRequired = _isValuePct(vote_.yea, totalVotes, vote_.supportRequiredPct);\n        bool hasMinQuorum = _isValuePct(vote_.yea, votingPowerAtSnapshot, vote_.minAcceptQuorumPct);\n\n        return hasSupportRequired && hasMinQuorum;\n    }\n\n    /**\n    * @dev Internal function to check if a voter can participate on a vote. It assumes the queried vote exists.\n    * @return True if the given voter can participate a certain vote, false otherwise\n    */\n    function _canVote(uint256 _voteId, address _voter) internal view returns (bool) {\n        Vote storage vote_ = votes[_voteId];\n\n        uint256 voterStake = _voterStake(vote_, _voter);\n        bool hasNotVoted = vote_.voters[_voter] == VoterState.Absent;\n\n        return _isVoteOpen(vote_) && voterStake > 0 && hasNotVoted;\n    }\n\n    /**\n    * @dev Internal function to determine a voters stake which is the minimum of snapshot balance and current balance.\n    * @return Voters current stake.\n    */\n    function _voterStake(Vote storage vote_, address _voter) internal view returns (uint256) {\n        uint256 balanceAtSnapshot = token.balanceOfAt(_voter, vote_.snapshotBlock);\n        uint256 currentBalance = token.balanceOf(_voter);\n\n        return balanceAtSnapshot < currentBalance ? balanceAtSnapshot : currentBalance;\n    }\n\n    /**\n    * @dev Internal function to check if a vote is still open\n    * @return True if the given vote is open, false otherwise\n    */\n    function _isVoteOpen(Vote storage vote_) internal view returns (bool) {\n        uint256 votingPowerAtSnapshot = token.totalSupplyAt(vote_.snapshotBlock);\n        uint64 blockNumber = getBlockNumber64();\n        return votingPowerAtSnapshot > 0 && blockNumber >= vote_.startBlock && blockNumber < vote_.startBlock.add(durationBlocks);\n    }\n\n    /**\n    * @dev Calculates whether `_value` is more than a percentage `_pct` of `_total`\n    */\n    function _isValuePct(uint256 _value, uint256 _total, uint256 _pct) internal pure returns (bool) {\n        if (_total == 0) {\n            return false;\n        }\n\n        uint256 computedPct = _value.mul(PCT_BASE) / _total;\n        return computedPct > _pct;\n    }\n}\n",
  "sourcePath": "/Users/rodrigoperez/Development/1Hive/dandelion/dandelion-voting-app/contracts/DandelionVoting.sol",
  "compiler": {
    "name": "solc",
    "version": "0.4.24+commit.e67f0147.Emscripten.clang"
  },
  "schemaVersion": "2.0.1",
  "updatedAt": "2020-04-08T00:55:05.949Z"
}